:02000004080AE8
:1000000000000A0840520A08000006000600050128
:0800100004029A080000000040
:04001800544B0A0833
:1000200009480A4908B5884205D0094A824202D0E7
:10003000121A04F0F7FB0748074A0021121A04F0CD
:1000400019FC064808BD00BF00000020A4510A08A2
:1000500074000020740000202507002025070020E0
:1000600070B503F0C5FB0025054E064CA41BA40883
:10007000A54200D170BD56F8043B98470135F7E71B
:1000800074510A0894510A0800F0FAB808B500F053
:1000900033F9BDE8084003F063BB01F0E1B901F0BA
:1000A000DFB901F0E5B901F0E3B9000000210C204F
:1000B00008B5024A01F018F9FEE700BF71100A08FE
:1000C0000078B0FA80F04009704701230370704750
:1000D0007047006A0368DB681847000010B50446E3
:1000E000094B036001F078FE214602F085F803F029
:1000F00043FA03F027FA2046044B40F8043B01F092
:1001000069FF204610BD00BF144C0A08FC4B0A08CA
:1001100010B50446FFF7E2FF2046242103F0E6FB7A
:10012000204610BD38B5054608460C4604F0F7FBDE
:10013000214602462846BDE8384001F0E3BC0EB433
:1001400010B50023016820208DB00FAA52F8044B8F
:10015000CDE90403CDE9004203921E2004AA01F078
:10016000D3F80DB0BDE8104003B0704708B50249A0
:100170000248FFF7E4FF08BD684B0A089C01002015
:1001800030B5ADF21C4D06AC31493248FFF7D7FF10
:1001900000214FF48062204604F06CFB2E4A0023BD
:1001A000019240F2FF3201A8CDE904238DF8083016
:1001B000039401F00AFC294901A8FFF7B3FF0546A3
:1001C000274800F0C5FE03F00FFE02460B46284606
:1001D00001F02CFC234901A8FFF7A4FF05462048A5
:1001E00000F0B9FE03F000FE02460B46284601F07F
:1001F0001DFC1D4901A8FFF795FF0546184800F0B2
:10020000ADFE03F0F1FD02460B46284601F00EFC60
:1002100001A801F0C4FB03F0AFF9214602F011FD83
:10022000124800F076FA18B91149104800F062FB44
:10023000224610490D4800F0E8FB30B10E49054850
:10024000FFF77DFF0DF21C4D30BD0C49F7E700BFF5
:10025000794B0A089C010020FC4C0A08854B0A08CF
:10026000FC000020914B0A089A4B0A0874000020F9
:10027000AF4B0A08A34B0A08BF4B0A08C94B0A0830
:1002800010B50A4C204600F0B1FC204600F017FDE6
:100290000721204600F020FD204600F031FDBDE89A
:1002A00010400349034800F025BB00BFF8000020C0
:1002B000AF4B0A087400002038B50D4800F01CFC54
:1002C00005460B4800F058FC0446094800F0EEFDD6
:1002D000074800F031FD2A4603462146054800F054
:1002E00023FE18B1BDE83840FFF74ABF38BD00BF54
:1002F000F8000020FC00002008B5FFF7DDFFBDE896
:1003000008404FF47A7001F0D3B870B51426D0E9E4
:100310000053044606FB0356AE4204D0284602F0C2
:10032000EFFC1435F8E7206801F0A2F8204670BD14
:100330008842F8B504460D46164616D9904215D2A5
:10034000A2F11406751AA1F114072C44B7421CD06F
:100350002CB13146204602F04DFD337C23743046EB
:1003600002F0CEFC143E143CF0E70ED0B5420CD0A7
:100370002CB12946204602F03DFD2B7C23742846F3
:1003800002F0BEFC14351434F0E7F8BD00232DE96B
:10039000F041C0E9003383604F6804469F420E4637
:1003A00024DD4FF0140808FB07F001F059F805466A
:1003B000E0B1D4E9001208FB0212FFF7B9FF206890
:1003C00001F056F82560A760D6E9007308FB0378B2
:1003D000B84509D03946284602F026FD3B7C143545
:1003E00005F8043C1437F3E7736863602046BDE802
:1003F000F0810000F0B500248FB0264800F01CFB0F
:10040000CDE90244049403F0B7F8234D06462F4685
:1004100002A905A8FFF7BAFF05A908A8FFF7B6FFCC
:100420001E4B08A947F8043B0BA8FFF7AFFF0BAA28
:100430001E21384602F038F80BA8FFF766FF08A81F
:10044000FFF763FF164B05A82B602E62FFF75DFFD9
:10045000144B2B6003F090F84FF4165103F06EF834
:1004600001F0BAFC294601F0B2FF02A8FFF74DFFE8
:1004700040F25B720C4B0D4900940D4800F060F89F
:100480000C4800F02DFD2146012000F065FF0FB063
:10049000F0BD00BFF8000020D4000020FC4B0A088B
:1004A000A44D0A08144C0A086D010A08D74B0A0823
:1004B00074000020FC00002091F85C3010B5044668
:1004C000016013B1886D00F09BFD204610BD10B592
:1004D0000368044693F85C2012B1986D00F098FD13
:1004E000204610BDF8B51F469DF8243004460D4641
:1004F000164623B101235830037100F079FD089BA3
:1005000023630023636306B1A66425B1294604F181
:10051000380002F094FC069BE0692365079BA4F871
:100520004C70FF2BB8BFFF23A4F8543008B1FFF77D
:10053000BAFDB4F85400FFF7B2FDE061F8BD000069
:100540002DE9FF4104460025984617460E4602F065
:10055000CBFE0D49E56104F1380002F01BFC9DF86B
:100560002830FF22CDE902830F232046CDE9003257
:1005700031463B462A46A56484F85C50FFF7B2FF3B
:10058000204604B0BDE8F081694D0A0810B5044664
:10059000204602F0BFFD0028FAD0204602F0FDFC04
:1005A000C0B210BD2DE9F0470546C4698946012750
:1005B000FFF7ECFF4FF0000820703C46EB6993F822
:1005C00000A00AF0F00A2846FFF7E0FF2646EB6994
:1005D0000134985500F07F0303FB07880306A4B29B
:1005E0001FFA88F84FEAC717EDD4631EBAF1300F2F
:1005F00089F8003024D12846EF69FFF7C7FF385546
:100600002846EF69FFF7C2FFF41C0236B6B2B855B0
:100610000226A4B2B6B2B1462746C14512D2284638
:10062000FFF7B4FFB5F8543009F10109BB4288BFA8
:10063000EB691FFA89F988BFD8550137BFB2ECE7DB
:100640000026E7E7A8EB0600B0452CBF06460026CB
:10065000B5F854003444A4B2A0422CBF2046002078
:10066000BDE8F087F7B58C461E461D4607460023B9
:10067000AE4605F07F01BEF17F0F02A888BF41F0B2
:1006800080015C1CBEF17F0F03444FEAD515E4B234
:1006900003F8041C10D8C4F10403D11802F803C0F5
:1006A000C4F10503134401A80532934206D010F8A3
:1006B000015B03F8015BF8E72346D9E7721C22448B
:1006C000384602F0ECFB054600F0DAFC01347862B3
:1006D0003444A8B2231A5842584103B0F0BD023343
:1006E000F0B5044698B20023CD5C4DB1B4F8546027
:1006F0005F1C864204D9461C15543B46B0B2F3E752
:1007000099B2441A2244091202F8021C02F8013C70
:10071000F0BD38B5044602F08EFD002814BF012557
:10072000002502D1204602F02FFD284638BD0000EA
:100730002DE9F04788B00446894617461E46DDF885
:1007400040809DF850A0FFF7E4FF0546002840F0E8
:10075000CB80214601A8FFF7AFFEA16C002940F035
:1007600087802B462046B4F84C20A16B02F0D4FDC4
:10077000002879D0012323849DF85430E269042BAA
:1007800040F08180594B186899889B79ADF80C101E
:100790008DF80E300290C2F805009DF80E30BDF8BD
:1007A0000C10D3720C23A2F80910B8F1000F7FD0FF
:1007B0009DF848009DF84420400140EAC20040F006
:1007C0000600C0B2BAF1000F01D100F0FD001FB168
:1007D000002E6FD140F08000E269D054226DE169B3
:1007E000581C12120A54E169206D9A1C8854033374
:1007F00049462046E269FFF772FF0346B8F1000F51
:100800000BD04146E2692046FFF769FFE2690346E3
:1008100013992046FFF763FF034667B13946204628
:10082000E269FFF75CFF03462EB131462046E269DC
:10083000FFF755FF0346053B1021E2699BB22046B6
:10084000FFF710FF00F01CFC4FF47A76C4E90900B2
:10085000204602F05FFC80BB00F012FCA36AC01AC5
:10086000236D73439842F3D9204602F08DFC34E0A7
:1008700002A800F029FF2B462046B4F84C2002A91C
:1008800002F0D8FB74E71A4B0DF1080C1868596890
:100890001B7AACE803008CF8003002AB03CBC2F843
:1008A0000500C2F809109CF8003053730E237CE752
:1008B000022087E740F0C0008EE7204602A9FFF73C
:1008C00071FE0428D0D1E369DE78002ECCD100F08F
:1008D000D7FB0125A06284F82C6001A8FFF7F7FD83
:1008E000284608B0BDE8F0870025F9E7244C0A083F
:1008F0002B4C0A087FB501230422CDE904320023E2
:100900001A46CDE90233CDE90033FFF711FF07B0F6
:100910005DF804FB2DE9F74FDDF83C8004468B467B
:1009200016461F469DF834509DF83890FFF7F1FEAB
:100930008246002851D0214601A8FFF7BDFD0021C5
:10094000B4F85420E06903F095FF0523594620468A
:10095000E269FFF7C4FE6B1E012B15D8218CE369F9
:10096000013189B2218409121954421CE369218C96
:1009700092B2023080B29954B8F1000F04D0238CA7
:100980005A1C2284A8F8003000210B188F42E2691B
:100990009BB20AD9B4F854C09C4506D916F801C0D8
:1009A000013102F803C089B2EFE79DF83010002949
:1009B0000CBF30213121B9F1000F01D041F0080105
:1009C000022D0ED141F00401053B20469BB2FFF7FA
:1009D00049FE824601A8FFF77AFD504603B0BDE804
:1009E000F08F012D08BF41F00201EDE71FB5089C13
:1009F0000394002402949DF81C4001949DF8184033
:100A00000094FFF787FF04B010BD7FB50546104680
:100A100014460E4603F083FF00220346CDE901226F
:100A20000092314622462846FFF7E0FF04B070BD31
:100A30000368C9B29B681847704708B502F024FFE5
:100A4000402100F0C9FD02F01FFFFC21FFF7F0FF7D
:100A500002F01AFFC921FFF7EBFF02F015FF00F0CB
:100A6000C2FD02F011FF0122402100F0AEFD02F0B4
:100A70000BFF03685B699847C0B208BD38B5E02931
:100A800014BF032502250C4602F0FEFE402100F0B3
:100A9000A3FD02F0F9FE036821469B68984702F027
:100AA000F3FE00F0A0FD642000F002FD02F0ECFE79
:100AB0002A46402100F089FD652402F0E5FE036826
:100AC0001B699847A84206DA012000F0F1FC013CBE
:100AD000F3D164200FE002F0D7FE03685B6998470A
:100AE000044602F0D1FE03685B69984700F0FC0001
:100AF00040EA042080B238BD08B5F521FFF7BEFFFB
:100B000003F060F90022074B03F0C6F90022064B00
:100B100003F0C2F90022054B03F006F803F0CEFB08
:100B200008BD00BF00405F400000F03E00001840DC
:100B300008B5F321FFF7A2FF03F044F908A3D3E9B6
:100B4000002303F0A9F90022094B03F0A5F906A33D
:100B5000D3E9002302F0E8FF03F0B0FB08BD00BFBB
:100B6000D7A3703D0AF76540CDCCCCCCCC6C4740C8
:100B70000000F03E0000000008B5FFF7D9FF03F0C9
:100B800033F907A3D3E9002303F086F90022064BCB
:100B900002F0CCFF03F092FB08BD00BFAFF3008072
:100BA000CDCCCCCCCCCCFC3F0000404010B50C46AA
:100BB00002F06AFE602100F00FFD02F065FE03689E
:100BC00021469B68984702F05FFE002100F007FD78
:100BD00002F05AFE0122602100F0F7FC02F054FE00
:100BE00003685B699847C0B210BD000038B5054680
:100BF00002F04AFE00F0BAFC0C212846FFF7D6FFAF
:100C000004462846FFF719FF152818D0322824D1AA
:100C1000C42C03D002F0B0FC154902E002F0ACFC99
:100C2000144902F00EF802F0A7FC134911E002F09B
:100C3000A3FC0F4908E002F09FFC104909E0C42C16
:100C4000F5D102F099FC0B4901F0FBFF02F094FC96
:100C50000B49BDE8384001F0F4BFC42CEBD102F0E1
:100C60008BFC044901F0EDFF02F086FC0549F0E73A
:100C70005E4C0A08344C0A08514C0A08934C0A0886
:100C8000444C0A08724C0A0838B514460D4602F066
:100C9000FBFD602100F0A0FC02F0F6FD0368294690
:100CA0009B68984702F0F0FD036821469B689847CF
:100CB00002F0EAFDBDE83840012100F090BC10B51B
:100CC00026210446FFF772FF262100F07F0220460E
:100CD000BDE81040FFF7D8BF072928BF072138B566
:100CE0000D4626210446FFF761FF00F0C70242EAE5
:100CF000C5022046BDE838402621D2B2FFF7C4BF66
:100D000007221321FFF7C0BF10B526210446FFF7C5
:100D10004DFF262100F0FD022046FFF7B5FF2621FA
:100D20002046FFF743FF40F0020226212046BDE89F
:100D30001040D2B2FFF7A8BF2DE9F0418046002154
:100D4000FFF734FF00214046FFF730FF02F09CFD23
:100D5000602100F041FC02F097FD0121FFF768FEE1
:100D600002F092FD002100F03AFC02F08DFD03221A
:100D7000602100F02AFC03282DD102F085FD0368D4
:100D80005B699847044602F07FFD036824045B69B1
:100D90009847064602F078FD036836025B6998477B
:100DA000C7B24046FFF7B0FFC7F3011003F08CFB5A
:100DB0004FF07A5103F0E0FB04F47F04B6B2344301
:100DC0003C430546A00903F083FB0146284603F097
:100DD000CBFABDE8F0810148FBE700BF00C079C451
:100DE000F8B50021064640F25924FFF7DFFE002146
:100DF0003046FFF7DBFE820707D4013C01D12948CA
:100E0000F8BD012000F054FBF1E702F03DFD602148
:100E100000F0E2FB02F038FD0421FFF709FE02F0CA
:100E200033FD002100F0DBFB02F02EFD02226021E9
:100E300000F0CBFB0228E2D102F026FD03685B69DB
:100E40009847C7B2054602F01FFD03685B699847E3
:100E5000C4B23046FFF758FF2B0641BF04EB07240E
:100E60006442C4F3072704F0F0044FEA14104CBFA7
:100E70000126002602F0A6FF00220B4B03F00CF81F
:100E800003F01CFA0546384603F022FB01462846CB
:100E900003F06AFA002EB3D00146002003F062FA94
:100EA000AEE700BF00C079C40000B03F08B5FFF74F
:100EB00097FF02F099FF0022064B02F0EDFF00229F
:100EC000054B03F013F90022044B02F02FFE03F050
:100ED000F5F908BD00002240000014400000404029
:100EE00038B50A230446002540F8043B02F0FCF91B
:100EF0000C49256204F13C0001F04CFF2046E564FA
:100F000084F8605050F8641B00F02BF8204650F82D
:100F1000741B00F026F8204650F8841B00F021F8DE
:100F2000204638BD694D0A08F8B5044664301746B6
:100F30001E4600F028F80546394604F1740000F01A
:100F400022F8314604F1840000F01DF82846F8BD6F
:100F5000643000F033B8743000F030B8843000F002
:100F60002DB86FF06043994210B5044601602CBF64
:100F70004FF0FF308800FFF792F80023E060C4E9EB
:100F80000133204610BD10B54268C36843F82210F3
:100F9000D0E90023591C91FBF2F302FB1313816883
:100FA00043608B4201BF5C1C94FBF2F102FB1142D7
:100FB0008260082BD4BF0020012010BDF8B5074681
:100FC0000026002445680135AE4208DAFB68204659
:100FD00053F8261003F0C8F901360446F4E7284612
:100FE00003F076FA0146204603F07AFBF8BD0000D4
:100FF00008B5024B1B681B6B019308BDD0010608A6
:1010000008B5024B1B689B6B019308BDD001060815
:1010100008B5024B1B681B6C019308BDD001060884
:1010200008B5024B1B685B6C019308BDD001060834
:1010300008B5024B1B689B6C019308BDD0010608E4
:1010400008B5024B1B68DB6C019308BDD001060894
:1010500008B5024B1B685B6D019308BDD001060803
:1010600008B5024B1B685B68019308BD9C0106082C
:1010700008B5024B1B68DB68019308BD9C0106089C
:1010800008B5024B1B685B69019308BD9C0106080B
:1010900008B5024B1B68DB6C019308BDAC01060868
:1010A00008B5024B1B689B6D019308BDAC01060897
:1010B00008B5024B1B68DB6D019308BDAC01060847
:1010C00008B5024B1B681B6E019308BDAC010608F6
:1010D00008B5024B1B685B6E019308BDAC010608A6
:1010E00008B5024B1B689B6E019308BDAC01060856
:1010F00008B5024B1B68DB6E019308BDAC01060806
:1011000008B5024B1B681B6F019308BDAC010608B4
:1011100008B5034B1B68D3F88030019308BD00006D
:10112000AC01060808B5034B1B68D3F89030019357
:1011300008BD0000AC01060808B5024B1B681B681F
:10114000019308BDBC01060808B5024B1B685B682B
:10115000019308BDBC01060808B5024B1B689B68DB
:10116000019308BDBC01060808B5024B1B68DB688B
:10117000019308BDBC01060808B5024B1B681B693A
:10118000019308BDBC01060808B5024B1B681B6A29
:10119000019308BDBC01060808B5024B1B681B6B18
:1011A000019308BDBC01060808B5024B1B685B6CC7
:1011B000019308BDBC01060808B5024B1B689B697A
:1011C000019308BDC401060808B5024B1B681B6AE1
:1011D000019308BDC401060808B5024B1B685B6A91
:1011E000019308BDC401060808B5024B1B689B6A41
:1011F000019308BDC401060808B5024B1B68DB6AF1
:10120000019308BDC401060808B5024B1B681B6B9F
:10121000019308BDC401060808B5024B1B685B6B4F
:10122000019308BDC401060808B5024B1B681B6C7E
:10123000019308BDC401060808B5024B1B68DB6CAE
:10124000019308BDC401060808B5024B1B681B6862
:10125000019308BDD801060808B5024B1B685B68FE
:10126000019308BDD801060808B5024B1B689B68AE
:10127000019308BDD801060808B5024B1B681B691D
:10128000019308BDD801060808B5024B1B685B69CD
:10129000019308BDD801060808B5024B1B689B697D
:1012A000019308BDD801060808B5024B1B68DB692D
:1012B000019308BDD801060808B5024B1B681B6ADC
:1012C000019308BDD801060808B5024B1B685B6C8A
:1012D000019308BDC001060808B5024B1B689B6C52
:1012E000019308BDC001060808B5024B1B685B6B83
:1012F000019308BDA801020808B5024B1B681B6DCD
:10130000019308BDA801020808B5024B1B685B6D7C
:10131000019308BDA801020808B5024B1B68DB6EEB
:10132000019308BDA801020808B5024B1B681B6F9A
:10133000019308BDA801020808B5024B1B685B6851
:10134000019308BDA401060808B5024B1B685B6940
:10135000019308BDA401060808B5024B1B68DB6AAF
:10136000019308BDA401060808B5034B1B68D3F818
:101370009030019308BD0000A401060808B5034B96
:101380001B68D3F89C30019308BD0000A401060837
:1013900008B5024B1B68DB6B019308BDCC01060846
:1013A00008B5024B1B685B68019308BDC8010608BD
:1013B00008B5024B1B689B68019308BDC80106086D
:1013C00008B5024B1B68DB68019308BDC80106081D
:1013D00008B5024B1B681B69019308BDC8010608CC
:1013E00008B5024B1B685B69019308BDC80106087C
:1013F00008B5024B1B689B69019308BDC80106082C
:1014000008B5024B1B68DB69019308BDC8010608DB
:1014100008B5024B1B681B6A019308BDC80106088A
:1014200008B5024B1B681B6B019308BDC801060879
:1014300008B5024B1B685B6B019308BDC801060829
:1014400008B5024B1B681B6C019308BDC801060858
:1014500008B5024B1B685B6C019308BDC801060808
:1014600008B5024B1B681B68019308BDA001060864
:1014700008B5024B1B685B68019308BDA001060814
:1014800008B5024B1B689B68019308BDA0010608C4
:1014900008B5024B1B685B6A019308BDA0010608F2
:1014A00008B5024B1B685B6C019308BDA0010608E0
:1014B0000021FFF749BF38B5046805467CB1636871
:1014C000013B63605BB9236820469B689847A3682B
:1014D000013BA3601BB923682046DB689847284678
:1014E00038BD0B68036013B15A6801325A60704707
:1014F0007047F8B5064615460C468F18BC4206D014
:10150000336830469B6814F8011B9847F6E7284675
:10151000F8BD0022007CFFF7D3BD0021007CFFF75F
:10152000D7BD0021007CFFF7DBBD0021007CFFF769
:10153000DFBD0021007CFFF7E3BD10B50446142198
:1015400002F0D4F9204610BD10B54FF47A7304466A
:1015500008460021C4E90113034B1146236020749F
:10156000FFF7D6FD204610BDB04C0A080023007CD2
:101570001A461946FFF78CBD7FB500221423CDE92A
:101580000122ADF804300B78007C8DF808304B68F0
:101590000393CB6804930B7A01A90593FFF7C2FD6F
:1015A00007B05DF804FB1FB5003B8DF800104FF04D
:1015B000640118BF01230391694601928DF8083038
:1015C000FFF7DAFF05B05DF804FB0123FFF7EBBF7F
:1015D0000022007CFFF764BDC9B2FFF7F9BF00220B
:1015E000007CFFF765BD0121FFF7F9BF704710B51B
:1015F0000446182102F07AF9204610BDF8B50E46CF
:10160000002400F10807051D17F8011D0A223046C5
:1016100001F021FBAF42044401D12046F8BD002C6B
:10162000F2D02E21304601F0FDFA0444ECE7000030
:1016300010B50446044B1122002140F8043B03F08E
:1016400019F9204610BD00BFD84C0A080346074AC6
:1016500010B543F8042B01F1100251F8044B9142EC
:1016600043F8044BF9D10A781A7010BDD84C0A0817
:10167000024AC0E90021042202757047D84C0A08CA
:1016800010B59DF8084044EA0324042344EA0244C8
:1016900044EA01644460037510BD000037B5044D91
:1016A00005609DF818500095FFF7EAFF03B030BDC4
:1016B000D84C0A0813B5CB7800938B784A78097810
:1016C000FFF7DEFF02B010BD10B50446024B036009
:1016D000FFF7F0FF204610BDD84C0A08012200F1A8
:1016E000100313F8101C1846012908D153F8041CE4
:1016F00002EB4102013A03F11003F2D170470229D3
:1017000004BF53F8041C5218F4E7704710B50446A0
:10171000142102F0EBF8204610BD38B51546D0E98B
:1017200003239342044607D2D21A8068AA4228BFF4
:101730002A46184403F076F822692A44226138BD0B
:101740000EB417B5044605AB53F8042BE1680193BA
:10175000036980688B4234BFC91A00211844019B79
:10176000FFF796FE23690344236103B0BDE81040F0
:1017700003B070470EB42DE9F04187B000AF07F118
:10178000340555F8048B04462B464246102107F1D8
:1017900008007D60FFF77CFE0F281BD900F10803CD
:1017A00023F007036E46ADEB030D4246411C2B466A
:1017B00068467D60FFF76CFE021E04DD2368694603
:1017C00020469B689847B5461C37BD46BDE8F041AA
:1017D00003B070470028F7D0236802469B68204674
:1017E00007F108019847EFE710B5044603689B68C6
:1017F0009847A368013BA3602BB923682046BDE846
:101800001040DB68184710BD07B503688DF8071056
:1018100001229B680DF10701984703B05DF804FBB6
:1018200038B50B68044603604D6843689D420CD090
:1018300015B16B6801336B60606828B14368013B88
:1018400043600BB9FFF7D0FF6560204638BD0B46FB
:101850001146002210B50446C0E9002283600BB98E
:10186000204610BDFFF7DCFFFAE70346806820B38F
:101870000278032A1AD8DFE802F00417021B0520B9
:1018800070471B685A684368D05C2D2812D0A0F1BD
:101890003003092B0ED974280ED066280CD0A0F185
:1018A0006E03584258417047062070470020704729
:1018B00004207047032070470220704710B504468B
:1018C000FFF7D3FF02280ED0C31EDBB2012B14D8C2
:1018D0002268A36850685B680A22BDE810400021B6
:1018E000184403F0C5B82268A36852685B68D05CEE
:1018F000A0F174035842584110BD0020FCE70000DD
:101900000B461146002210B50446C0E900220D48DE
:10191000C4E90202A3B11A78032A06D082B90A6880
:1019200050685A68825C6E2A07D00A685868526804
:101930009B6802441B1AA260E3602046FFF770FF19
:10194000204610BD694D0A0838B500250B460446EF
:101950001146C0E90055C0E90255C0E904554BB134
:101960001A78012A06D103F11002DB688260436114
:10197000FFF756FF204638BD10B54369044663B1F2
:101980008068013BE0601030A0602061636113B1AA
:10199000FFF7A4FEA060012000E0184610BD10B5BE
:1019A0007D210446FFF730FF01232046237110BD3F
:1019B00008B50379012B02D0022B04D008BD2C21DD
:1019C000FFF722FFFAE73A21FAE710B50446FFF7DE
:1019D000EFFF20467B21FFF717FF002320462371EE
:1019E00010BD000038B504460D46FFF7E1FF23683F
:1019F00020462A46DB680349984701232046237185
:101A000038BD00BFE44C0A0838B504460D46FFF760
:101A1000CFFF236820462A46DB6803499847012305
:101A20002046237138BD00BFE74C0A08F8B50446CC
:101A30001F461646FFF7BCFF23682046DD68324686
:101A40003B460349A847012320462371F8BD00BF48
:101A5000EA4C0A082DE9F0410D46174622210446BA
:101A6000FFF7D2FE2946DFF898802F44BD422A4670
:101A700038D015F8016B222E03D05C2E01D01F2E1A
:101A8000F4D82368521A20469B6898475C21204668
:101A9000FFF7BAFE0D2E0AD8072E1CD9A6F10803AF
:101AA000052B18D8DFE803F00D0F11171315222EA0
:101AB00001D05C2E0FD131462046FFF7A5FE294606
:101AC000D4E76221F8E77421F6E76E21F4E7662196
:101AD000F2E77221F0E72368324641462046DB6890
:101AE0009847ECE78D4204D0236820469B686A1A29
:101AF000984722212046FFF787FEBDE8F08100BF0E
:101B0000ED4C0A0870B504460D461646FFF750FF27
:101B1000204632462946FFF79DFF022320462371C7
:101B200070BD70B504460D461646FFF741FF2046CE
:101B300032462946FFF78EFF01232046237170BDF0
:101B400080680368DB6818477047084611B10B6866
:101B50005B6818477047704770477047704738B5E3
:101B600004460D4600682E2102F0BDFE23680246A1
:101B7000C01A286020B1137803B1013220682260B6
:101B800038BD10B504460C2101F0B0FE204610BD52
:101B900010B50446042101F0A9FE204610BD10B581
:101BA0000446042101F0A2FE204610BD08B502F053
:101BB000A4FEB0FA80F0400908BD704710B50C468D
:101BC00001F0DAFC844205D101F0D6FCBDE81040FA
:101BD00001F0B8BC01F00AFD844202D101F006FD1B
:101BE000F4E701F035FC844205D101F031FCBDE899
:101BF000104001F02ABC2CB123682046BDE81040FB
:101C00005B68184710BD38B5054608460C4602F01B
:101C100086FE214602462846BDE83840FFF781BFD0
:101C200070B5044608460D4602F079FE2368024668
:101C300029462046BDE87040DB68184707B50368B1
:101C40008DF807100122DB680DF10701984703B0FA
:101C50005DF804FB0EB403B503AB53F8042B00216D
:101C6000006A019301F014F802B05DF804EB03B0D0
:101C7000704700002DE9F74F4FF01408D0E90095A8
:101C800017464C4608FB05F50093AB10174D5D4316
:101C9000002D23DD6E1008FB06F004EB000ABAF8F5
:101CA00004B03A465F4528BF5A462058019102F0D9
:101CB0003EFE0123019978B95F4503D1009A137064
:101CC0003546E5E78CBF012000200028F8D0AE1B88
:101CD0000AF11404013EF3E7C00FF6E7A4EB090490
:101CE0000248A410604303B0BDE8F08FCDCCCCCC4B
:101CF0007FB50369067E019103B3F9B1002500F1B8
:101D00000C04039503A901A8FFF729FF0146A8B118
:101D10000DF10B032046039A8DF80B50FFF7AAFF35
:101D20009DF80B3053B11423246803FB0044B4F92D
:101D300006300834002BA8BFDEB2E3E7304604B01B
:101D400070BD000010B5094C2378BFF35B8FDB0733
:101D500009D42046FEF7B4F928B12046FEF7B5F9BC
:101D6000034802F059FD034810BD00BF9401002054
:101D7000571B0A080000002010B5094C2378BFF358
:101D80005B8FDB0709D42046FEF79AF928B120467D
:101D9000FEF79BF9034802F03FFD034810BD00BF6A
:101DA00098010020BB1B0A080400002038B500255C
:101DB0000446C0E90055C0E904558560856140F8D6
:101DC000245FFFF72DF9FFF7BDFFE061FFF7D4FFB8
:101DD00025732062204638BD10B50A4C2378BFF326
:101DE0005B8FDB070CD42046FEF76AF940B106484A
:101DF000FFF7DCFF2046FEF768F9044802F00CFD0F
:101E0000014810BD90010020A0010020D5220A0841
:101E10000023024A02490348FFF786BA61210A08F3
:101E2000ED200A086D200A0800231A4619461846B4
:101E3000FFF77ABA37B504460D6951F8043B01A89B
:101E40000093FFF74EFB6A4629462046FFF7FFFC4A
:101E500001A8FFF730FB204603B030BD37B504467C
:101E60008D6851F8043B01A80093FFF73AFB6A46DE
:101E700029462046FFF768FD01A8FFF71CFB204616
:101E800003B030BD37B50446CD6851F8043B01A816
:101E90000093FFF726FB6A4629462046FFF730FDF0
:101EA00001A8FFF708FB204603B030BD70B58AB02B
:101EB0000D46014604A8FFF7D1FF144E04A8FFF712
:101EC0005BFDE8B1684604A9FFF7DCFF31460298E4
:101ED000FFF76CFE044610B12C1E18BF012401A8A8
:101EE000FFF7E9FA002CE9D0684604A9FFF7A2FF42
:101EF0006846FFF7E3FC286001A8FFF7DCFADDE79E
:101F000005A8FFF7D8FA0AB070BD00BF0C4D0A084B
:101F100037B50C4619492046154602F0EEFC48B983
:101F200001F02AFB4FF4165101F008FB01F024FBED
:101F300003B030BD2046124902F0DFFC40B901F089
:101F400055FB4FF4165101F0F9FA01F04FFBEFE7A2
:101F500020460C4902F0D1FC70B94FF4165301A988
:101F600028460193FFF7A2FF01F072FA019901F0F0
:101F700069FA01F06DFADBE70020D9E7114D0A0894
:101F8000184D0A081B4D0A0870B51426D0E90053F5
:101F9000044606FB0356AE4205D005F10800FFF7E4
:101FA000F3FF1435F7E72068FFF762FA204670BDAB
:101FB00070B50446D0E9005305EB0316AE4204D0D9
:101FC000284600F09DFE1035F8E72068FFF750FA2C
:101FD000204670BD10B504460C30FFF7D5FF2046F3
:101FE000FFF7E6FF204610BD10B50446034B40F84E
:101FF000043BFFF7EFFF204610BD00BFFC4B0A0873
:1020000010B50446FFF7F0FF2046242101F06EFCD6
:10201000204610BD10B50446024B0360FFF7E4FFF5
:10202000204610BDBC4D0A0810B50446FFF7F2FF6C
:102030002046242101F05AFC204610BD0022C0E9B0
:102040000022826010B50C680A6004604C684A6027
:1020500044608C688A60846010BD10B504460368D3
:102060001868FEF7F5FF204610BD00002DE9F04F7F
:1020700087B003931C4B80465B688946C3F3080313
:1020800016466BB9FFF7A8FE044600F12403406A28
:102090000593FEF7D5FF237B2BB105A8FFF7DDFFE6
:1020A00007B0BDE8F08F01235FFA89F92373D4E903
:1020B000005305EB830AAA4512D055F8047B31463C
:1020C000381DFFF715FE8145F5D3039A3B68009252
:1020D000D3F808B04A46334641463846D847EAE77F
:1020E00000232373D9E700BF00ED00E02DE9F74F8F
:1020F0009B461A4B80465B688946C3F30803164625
:102100006BB9FFF769FE044600F12403406A0193AE
:10211000FEF796FF237B2BB101A8FFF79EFF03B0CC
:10212000BDE8F08F0123F6B22373D4E9005305EB29
:10213000830A55450ED055F8047B5946381DFFF7E4
:10214000D7FD8642F5D33B684A4641463846DB68B0
:102150009847EEE700232373DEE700BF00ED00E0C1
:102160002DE9F341164B05465B680F46C3F30803A0
:102170001BBBFFF731FE044600F12403406A0193C4
:10218000FEF75EFFD4E90063462406EB8308B04502
:1021900009D101A8FFF761FFA542B4BF00200120CB
:1021A00002B0BDE8F08156F8040B39460430FFF761
:1021B0009FFD8442A8BF0446E9E70020F0E700BF86
:1021C00000ED00E00B4670B5044605C800EB820246
:1021D000824207D001461D6851F8046BAE4203D01D
:1021E0000846F5E7002070BD521A02F029FB63682B
:1021F0000120013B6360F6E71FB5044600F12403AC
:10220000406A01910393FEF71BFF204601A9FFF7E7
:10221000D9FF18B163680BB9FFF706FE03A8FFF7F3
:102220001CFF04B010BD182370B50446D0E9045655
:1022300003FB0656AE4215D0204605F11001FFF70C
:10224000C1FF63680BB9FFF7EFFDE0692969036817
:10225000DB689847696919B1206A0368DB689847A9
:102260001835E7E71826D4E9045306FB0356AE42B7
:1022700004D0284600F044FD1835F8E700236361D8
:1022800070BD73B50446FFF7CFFD04F12403606A07
:102290000193FEF7D5FE2046FFF7C5FF01A8FFF723
:1022A000DCFE606A08B1FEF7C3FED4E904531826C9
:1022B00006FB0356AE4204D0284600F021FD183537
:1022C000F8E72069FFF7D4F82068FFF7D1F8204637
:1022D00002B070BD0148FFF7D4BF00BFA0010020CD
:1022E0008842F8B506460C46154627D9904226D2B4
:1022F0000026A2F114056C1AA1F114070444AF42A0
:102300003DD0A4B12B682360AB88A380B5F906301B
:10231000C4E902662661E380AB68A360AE60E3684F
:10232000EA68E260EB6023692A6922612B6105F1AA
:102330000800FFF729FE143D143CE0E71FD00027FA
:10234000AC421CD0A6B123683360A388B380B4F933
:102350000630C6E902773761F380A368B360A760EF
:10236000F368E268F260E3603369226932612361F5
:1023700004F10800FFF708FE14341436E0E7F8BD56
:10238000F8B5D0E901539D4204460E4617460DDBD1
:102390000135002D006804DDA900FFF771F818B9B8
:1023A000F8BDFFF765F800202060A5602568626829
:1023B00005EB86019200A2EB8602081D02F040FAAE
:1023C00045F826706368012001336360E8E737B59C
:1023D000044600F12403406A0D460193FEF730FEE7
:1023E000D4E9003103EB810083421A460AD0126817
:1023F0000433AA42F8D101A8FFF72FFE0025284692
:1024000003B030BD2A462046FFF7BAFF0546002834
:10241000F1D06368012B01D1FFF7FAFC01A8FFF7A7
:102420001CFEECE78842F8B504460D46164614D962
:10243000904213D2A2F11006751AA1F110072C4494
:10244000B74218D01CB13146204600F0D3FC3046CC
:1024500000F056FC103E103CF2E70CD0B5420AD01A
:102460001CB12946204600F0C5FC284600F048FC77
:1024700010351034F2E7F8BD70B50E1E054611DDBB
:102480003001FEF7EDFF044658B1D5E9001201EB2B
:102490000212FFF7C7FF2868FEF7EAFF01202C6051
:1024A000AE6070BD0024F6E72DE9F04F91460023A1
:1024B000462297B00391D9F8041004469942C0E926
:1024C0000033C0E90233C0E90433CDE90A330276B0
:1024D0000C9323DCD9E90057142303FB0757AF42C1
:1024E0003BD029460DA800F085FC0DA911A80B9E34
:1024F00000F080FCDDE90B1399421BDA0A9B0B9A72
:1025000003EB0616314603EB021206F11000FFF74B
:1025100089FFEEB90B9B01330B9311E00AA8FFF77B
:10252000ABFF0028D6D10AA8FFF742FD204617B01E
:10253000BDE8F08F01310AA8FFF79EFF0028DDD12A
:1025400011A800F0DDFB0DA800F0DAFB1435C6E79A
:10255000304611A900F04EFCDCE700264FF0140ACB
:102560003746CDE90D660F96DDE90A239E4280F2DB
:1025700097803301D35808930BB90136F4E70AFB6F
:1025800006F3099702930DAD09A908A8FFF7E7FA2A
:1025900083460028F1D00146099A28460DF11F0311
:1025A0008DF81F70FFF766FB9DF81F800190B8F152
:1025B000000F66D1BDF82430CDE91388ADF848305E
:1025C0004FF6FF73CDF844B0ADF84A30CDF85480E3
:1025D000D5E9013293421ADB03F1010BBBF1000F85
:1025E0004ADD0AFB0BF0FEF73BFF0490002845D0C4
:1025F000D5E900120AFB0212FFF772FE049B28685D
:102600000493FEF735FF049BC5F808B02B60019BCF
:10261000D5F800B00AFB03F36A680BEB030101F184
:1026200014000AFB02B204910593FFF759FE0499C6
:10263000A9B1119A059B4BF80320BDF848308B8057
:10264000BDF94A30C1E902770F61CB80139B8B60E3
:10265000149B1397CB60159B14970B6115976B68B0
:1026600001336B6013A8FFF78FFCB8F1000F08D09F
:102670000DA8FFF789FC56E74346C0E74FF0010875
:10268000F0E7019B2D680AFB0355089B1B782BB9CB
:10269000D9F80030029A13441B7CEB80083573E7AD
:1026A0002168226062686360A3680B920C9A0C93A5
:1026B000E368A2600D9A0D932369E2600E9A0E936F
:1026C000636922610F9A0F93039B0A9162612376DB
:1026D000CEE700007FB505460E460446084B11467E
:1026E00045F8043B01A8FDF751FE314601AA2846F2
:1026F000FFF7DAFE01A8FDF708FE204604B070BD22
:10270000FC4B0A08F0B50F4687B0384625491646F7
:102710001D460C9C02F0F1F800BBE4B12946684666
:10272000FFF78CFC2420204901F0E2F8054670B147
:10273000694603A8FDF72AFE314603AA2846FFF79B
:10274000C9FF03A8FDF7E1FD184B2C622B6068461A
:10275000FDF7DBFD2C46204607B0F0BD3846144996
:1027600002F0CBF8E0B9002CF5D029466846FFF717
:1027700065FC24200C4901F0BBF805460028E6D092
:10278000694603A8FDF702FE314603AA2846FFF773
:10279000A1FF03A8FDF7B9FD064B2C622B60D6E71D
:1027A0000024D8E7234D0A087C4F0A08BC4D0A08CC
:1027B000274D0A08A44D0A08014B024A1A607047C7
:1027C0009C010020384D0A082DE9F047089DD0F8FB
:1027D000209004460E461746984600F0CDFE8145EF
:1027E0004DD02B79190704D520466A695449FFF763
:1027F00031FAB8F1000F0DD05B212046FFF71EFA29
:1028000041462046FFF70CFA236802222046DB6887
:102810004C4998472B79DA0724D5D5F808802F2121
:10282000404602F096F808B100F101084146204602
:10283000FFF7F6F92B799B0708D53A212046FFF7D9
:10284000FDF92046EA684049FFF704FA2A7923682F
:1028500012F0040F20464FF00202DB6814BF3B4920
:102860003B4998472B7958071DD529690B461A46CD
:1028700013F8010B60B1202808D11946F7E7354855
:1028800000F067F90028ACD0BDE8F0872828EED129
:102890002368521A2046DB689847236804222046A2
:1028A000DB682D49984700213846FEF735FD014683
:1028B0002046FFF7B5F9236802222046DB68244949
:1028C00098471EB131462046FFF7AAF92B7913F03D
:1028D000300F2CD023682149DB680222204698471C
:1028E0002B79D9060AD52368072220461C49DB68C4
:1028F00098472046AA691B49FFF7ACF92B799A063D
:1029000011D5DB0605D5236802222046DB680F4976
:1029100098472368204614490A22DB6898472046D6
:10292000E969FFF77DF95D212046FFF787F9236804
:102930002046BDE8F0470222DB680C49184700BF7B
:102940003C4D0A08434D0A08E44C0A08464D0A0863
:102950004B4D0A08C8010020494D0A084E4D0A088F
:10296000514D0A08594D0A085C4D0A08674D0A087E
:102970002DE9F04385B0D0F8209005460F469046EB
:102980001E460C9C00F0F8FD814505D1494800F039
:10299000E0F8002840F08A804FF000092B6A464A90
:1029A00001A8019203938DF80890FFF70EF84946AD
:1029B0004046FEF7B1FC80464049012201A8FFF7DE
:1029C000A1F84146FFF71FF93FB13D49012201A897
:1029D000FFF798F83946FFF716F93EB13949012259
:1029E00001A8FFF78FF83146FFF70DF92379DF07CC
:1029F0000ED5A6682F21304601F0ABFF00B1461C72
:102A00003149012201A8FFF77DF83146FFF7FBF8B5
:102A100023799E0707D52D49022201A8FFF772F8F6
:102A2000E168FEF7DFFF2379580714D5266933469E
:102A30001F4613F8012B2AB1202A01D11E46F7E7C1
:102A4000282AF5D10222224901A8FFF75BF8314676
:102A5000BA1BFFF766F82379190707D51D4901222C
:102A600001A8FFF74FF86169FEF7CEFF2379DA0678
:102A700008D5042218490DEB0200FFF743F8A169BD
:102A8000FEF7B0FF23799B0607D51449062201A85B
:102A9000FFF738F8E169FFF7B6F801A8FEF77FFF06
:102AA000286A022203680E49DB68984705B0BDE832
:102AB000F08300BFC80100208C4D0A08164D0A089B
:102AC000F24B0A086A4D0A086C4D0A086E4D0A0856
:102AD000714D0A08744D0A08764D0A087B4D0A08A4
:102AE000674D0A08002340681A46FEF759BC0022C9
:102AF00002214068FEF764BC002240681146FEF7E0
:102B000057BC002240681146FEF762BC00234068B3
:102B10001A461946FEF764BC002340681A46194657
:102B2000FEF766BC00214068FEF78ABC00214068C1
:102B3000FEF78EBC0022406881F00101FEF760BC08
:102B400000224068FEF76CBC002240681146FEF788
:102B50006FBC002240681146FEF75ABC70B515469E
:102B60008EB0044608A8FEF763FD1122002103A8D9
:102B700001F080FE0026284601F0D1FE0A4B0096A7
:102B800081B25B68284603AAFEF7A6FB30B1314646
:102B90002046FEF76DFD20460EB070BD204603A90D
:102BA000FEF754FDF7E700BF48060020034A044B38
:102BB000042814BF10461846704700BFC801002003
:102BC00048060020024B034A1A6000225A607047F0
:102BD000C8010020044E0A08F8B506460D46002438
:102BE0008F18BD420CD0336830469B6815F8011B26
:102BF0009847031E01DB1C44F3E7002C08BF1C466A
:102C00002046F8BD70B505460C46084649B101F0AE
:102C100086FE2B68024621462846BDE87040DB68E8
:102C2000184770BD03689B68184738B50D210546E5
:102C3000FFF7F8FF0A2104462846FFF7F3FF204478
:102C400038BD38B50546FFF7DDFF04462846FFF7D7
:102C5000ECFF204438BD0023012A98BF0A2230B57A
:102C60008BB00C468DF8243009A92546B4FBF2F44C
:102C700004FB1253DBB2092B94BF30333733DBB282
:102C8000AA4201F8013DF0D9FFF7BCFF0BB030BDFF
:102C90002DE9F04186B000AF05460E46381D1421DF
:102CA00014463B60FEF7F4FB13280ED82846391D66
:102CB000FFF7A8FF04461EB12846FFF7B6FF0444FD
:102CC00020461837BD46BDE8F08100F1080323F027
:102CD0000703E846ADEB030D2246411C3B686846FE
:102CE000FEF7D6FB69462846FFF78CFF0446C5462B
:102CF000E1E700000022014B9A607047D0010020FC
:102D000010B504460068FEF7B3FB204610BD10B5B1
:102D10000446006808B1FEF7ABFB0023C4E90133A9
:102D2000236010BD38B504460D4600680131FEF73A
:102D3000A7FB10B1C4E90005012038BD10B5036838
:102D4000044623B143688B4201D3012010BD2046C5
:102D5000FFF7E8FF0028F9D0A368002BF5D122681F
:102D60001370F2E770B50E46114604461546FFF79C
:102D7000E5FF20B92046FFF7CAFF204670BD2A466E
:102D800031462068A56001F04DFD00212268A3684E
:102D9000D154F2E738B5002304460D46C0E90033AC
:102DA0008360037339B1084601F0B9FD2946024634
:102DB0002046FFF7D7FF204638BD38B505460068E6
:102DC0000C4668B16A688B689A4207D3096801F0BB
:102DD0009EFDA368AB600023A36038BDFEF748FBEF
:102DE00023682B6063686B60A368AB600023C4E951
:102DF0000033F1E7002310B50446C0E900338360D7
:102E00000373FFF7DAFF204610BD884210B50B466A
:102E1000044604D0096821B19A68FFF7A3FF204651
:102E200010BDFFF774FFFAE7002310B50446C0E9B0
:102E3000003383600373FFF7E8FF204610BD38B509
:102E400005460C4649B1084601F069FD2146024697
:102E50002846FFF787FF284638BDFFF758FFFAE7F7
:102E600002220020044B1A60044B054A1860988027
:102E700098719A60FEF760BAEC010020E001002032
:102E80000000FFFF13B503688DF80710DC6B01220B
:102E900047F230530DF10701A04702B010BD10B446
:102EA0000368DC6B47F23053A44610BC604713B58F
:102EB000134602688DF80710D46B0DF1070101224B
:102EC000A04702B010BD70477047000010B504461F
:102ED000064B0846994204F10C0404D000F00CFDA6
:102EE000002808BF0024204610BD00BF704E0A080D
:102EF00010B50446AC2100F0F9FC204610BDFDF7EA
:102F0000D0B8000038B50B4B8469054603607CB12E
:102F10006368013B63605BB9236820469B68984700
:102F2000A368013BA3601BB923682046DB68984770
:102F3000284638BD804E0A0810B50446FFF7E2FF68
:102F400020461C2100F0D2FC204610BD70B504467E
:102F500006464D69044B8C3544F8043B0FCD0FC435
:102F60002B683046237070BDD84C0A0810B54369F1
:102F70000446B3F88620B3F884309A4205D06369DA
:102F8000B3F884201344187910BD03681B6998476F
:102F90000028F4D14FF0FF30F6E710B5436904463E
:102FA000B3F88620B3F884309A4208D06369B3F846
:102FB0008420511CA3F884101344187910BD0368B1
:102FC0001B6998470028F1D14FF0FF30F6E7F8B5BC
:102FD00043691746B3F88620B3F8843005469A4211
:102FE0000E4616D069693046B1F88430B1F8864093
:102FF000E41ABC4228BF3C4604332246194401F07F
:1030000011FC6A69B2F884302344A2F88430204667
:10301000F8BD03681B6998470028E3D14FF0FF34DF
:10302000F5E700234269A2F884304269A2F88630AD
:10303000704700002DE9F0431F4603688BB0DB6A40
:1030400005460C46164698473846FFF7AFFD03681D
:10305000DB689847002854D033460622012102201D
:103060000097D5F81480FEF777F82023C8F8000001
:103070004FF00008CDE902386B6901201B68234935
:103080000193234B02AA00934346FEF735F96B697F
:103090001868FEF759F8002833D02846FFF7C1FF1B
:1030A0000223ADF80830E37976BA8DF80C30A379B5
:1030B0004FF4FA508DF80D306379ADF80A608DF851
:1030C0000E3014F8043F8DF80F30FEF7FDF86B69F1
:1030D00006461022186802A9FEF746F881463046D7
:1030E000FEF7F2F80FCC6E698C360FC6236833708A
:1030F0002F61B9F1000F07D02B682846DB6A98478B
:1031000040460BB0BDE8F0830120FAE7384E0A08CC
:103110003F4E0A0838B542690446B2F886302BB1F2
:10312000B2F884209A4201D1FFF77BFF2069FFF7B4
:103130003DFD0368DB689847F8B163691868FEF7DE
:1031400003F8D0B16069B0F886107F2915D8051D45
:10315000C1F18002002300682944FEF70DF8002821
:103160000BDD6369B3F886200AB9A3F8842063698C
:10317000B3F886201044A3F886006369B3F886008C
:10318000B3F88430C01A38BD38B5436904461868AE
:10319000FDF7DAFF18B163691868FDF7F5FF656997
:1031A000FDF7FAFF28606069112200218C3001F0E0
:1031B00061FB2046BDE83840FFF733BF10B54369D7
:1031C00004461868FDF7C0FF08B9002010BD20694B
:1031D000FFF7ECFC0368DB6898470028F5D06369CB
:1031E0001868FDF7A9FFB0FA80F04009EEE708B5CE
:1031F000FFF7E4FF003818BF012008BD2DE9F341B7
:103200000027476004460D4616469846FFF7D6FF4E
:1032100070B1CDE9008760693B46324629460068B7
:10322000FDF7C2FF002800DA606002B0BDE8F0815F
:103230004FF0FF30F8E770B50546FFF7BFFFE8B97C
:103240006B69B3F88610B3F88420914216D11868E0
:10325000FDF77AFF08B9002070BD6B691868FDF7AB
:103260006BFF01280446F6D12B6828461B69984756
:1032700030B92B682846DB6A9847ECE70120EBE77A
:103280002046E9E7002310B504460160C0F8843009
:103290008830FEF7CDF9204610BD0000F8B54FF498
:1032A0007A720023C0E901320D4A03610260436172
:1032B0000446AC200E46FCF7F0FE051E05F10C0797
:1032C00008D00123C5E90133064B314638462B604F
:1032D000FFF7D8FF2046C4E90575FFF7A2FEF8BD49
:1032E000804E0A085C4E0A0810B50446FDF754FFEC
:1032F00001462046FFF7D2FF204610BD10B5044618
:103300000068FDF721FF10B12068FDF73DFF204662
:1033100010BD0C30FFF7F2BF2DE9F0431F460368E4
:103320008FB0DB6A06460D46904698471348FFF774
:10333000E8FBF0B102A8FEF77BF9284601F0EFFAAE
:10334000002481B23B462846009403AAFDF7C4FF3F
:1033500090B9336809ADD3F82090094B03AC0893BA
:103360000FCC0FC5236842462B7030463B4608A958
:10337000C8470FB0BDE8F0832046FAE7C801002037
:10338000D84C0A08024B1A68024B1A60704700BFFB
:1033900008000020F001002070474174704770471A
:1033A00008B5007CFDF740FF20EAE07008BD08B5D5
:1033B000007CFDF719FF20EAE07008BD08B5007C2D
:1033C000FDF722FF40EAE07008BD08B5007CFDF77C
:1033D00013FF40EAE07008BD007CFDF71DBF70B52B
:1033E000467C04460D462EB12946207CBDE870403F
:1033F000FDF7F2BE007CFDF717FF0028F4DC304635
:1034000070BD10B50446142100F070FA204610BDBE
:103410004FF0000C10B50446084611464FF47A727E
:10342000C4E901C2044A20742260012262741A466F
:10343000FDF7C2FE204610BDE84E0A080023007CBE
:10344000FDF7FABE0022FFF7F9BF007CFDF7BCBE16
:1034500038B50C4D2978BFF35B8F11F001040FD103
:103460002846FCF72DFE58B12146074B074A08486D
:10347000FFF7CEFF2846FCF728FE064801F0CCF9FE
:10348000034838BDF40100207C020020F801002030
:10349000000300209F330A0841747047704770474B
:1034A00008B50021007CFDF7F7FE40EAE07008BD9A
:1034B00008B50121007CFDF7EFFE40EAE07008BD91
:1034C00008B5007CFDF7E0FE20EAE07008BD08B515
:1034D000007CFDF7D1FE20EAE07008BD38B5044657
:1034E000007C0D46FDF7D0FE002801DC607C28B191
:1034F0002946207CFDF7D8FE20EAE07038BD007C2C
:10350000FDF7DABE10B50446142100F0EFF92046AD
:1035100010BD704710B54FF47A7304460846002179
:10352000C4E90113044B2074236001231146637422
:10353000FDF78AFE204610BD184F0A080022007CC5
:10354000FDF78ABE007CFDF78FBE000010B5044673
:103550001422002101F08EF9054B20466360054BD3
:10356000E36040F2011323818123238210BD00BF59
:10357000440300204504002030B50E4D87B001A85B
:10358000FFF7E4FF2978BFF35B8F11F001040ED140
:103590002846FCF795FD50B1214601AA0648FFF7E1
:1035A000B9FF2846FCF791FD044801F035F90248BF
:1035B00007B030BD140300201C0300209D340A080E
:1035C00010B504461422002101F054F9054B2046A1
:1035D0006360054BE36040F2011323818123238262
:1035E00010BD00BFC6040020C705002010B50E4C5A
:1035F00086B001A8FFF7E4FF2378BFF35B8FDB07FA
:103600000ED42046FCF75CFD50B1012101AA074809
:10361000FFF780FF2046FCF758FD054801F0FCF855
:10362000024806B010BD00BF180300203003002080
:1036300013350A08002240681146FDF7C9BEF0B5EF
:10364000154689B011220E460446002103A801F058
:1036500011F9284601F063F9002781B27368284602
:10366000009703AAFDF738FE30B139462046FDF732
:10367000FFFF204609B0F0BD204603A9FDF7E6FF95
:10368000F7E7002240681146FDF7C2BE00224068FD
:103690001146FDF7CDBE00224068FDF7C1BE0022F5
:1036A000406881F00101FDF7ABBE002340681A4677
:1036B0001946FDF79DBE002340681A461946FDF7DE
:1036C0008FBE002240681146FDF772BE0022022123
:1036D0004068FDF775BE002340681A46FDF760BEDE
:1036E0000422024B5A60024A1A60704748060020C2
:1036F000484F0A08014B1860704700BF0C000020BB
:1037000008B5134B43B1FFF737FF03681B699847B0
:10371000002801DDAFF300800E4B43B1FFF798FEA8
:1037200003681B699847002801DDAFF300800A4B4E
:103730000BB1AFF30080094B43B1FFF757FF0368AC
:103740001B699847002801DDAFF3008008BD00BF6A
:103750000000000000000000000000000000000069
:1037600008B5FFF7CDFFFDF78BFC014B186008BDD6
:10377000580600200548064A08B5121A054901F006
:1037800051F8054B054A1A6008BD00BF00400240D1
:1037900004400240A0510A08004002401E1C279A23
:1037A000002307B51A466FF077010093FDF7E6FD99
:1037B00003B05DF804FB000007B543880A2B08D06E
:1037C000502B0BD1094B1B684BB103B05DF804EBD8
:1037D0001847FFF7E5FF03B05DF804FB00231A4626
:1037E0006FF077010093FDF7C9FDF4E75406002060
:1037F000002110B51148FDF753FE114B1A68114B0B
:103800009A420CBF012200220F4B1A7001D0FFF721
:10381000B1FFFDF725FC044601F034F80B4B13B162
:103820002046AFF3008000210848FDF7B1FDBDE858
:10383000104000210648FDF797BD00BFF5360A0885
:10384000004002401E1C279A500600200000000085
:10385000B9370A0870470000002370B5202543805F
:103860001423084E044603803146856005612846CE
:1038700000F040F831466060284600F03BF8E06018
:10388000204670BD7C4F0A0830B50E4D87B02978B0
:10389000BFF35B8F11F0010411D12846FCF710FC37
:1038A00068B101A8FFF7D8FF214601AA0648FDF735
:1038B0004BFE2846FCF709FC044800F0ADFF024827
:1038C00007B030BD5C0600206006002055380A08AD
:1038D000002307B51A46194600930348FDF7DEFE9C
:1038E00003B05DF804FB00BF74060020FCF7D9BBF1
:1038F000FCF7D3BBFCF7D3BB014900F0FBB800BF1A
:10390000984F0A087FB500241023CDE902340368DC
:1039100015469E6912686B4600948DF80440B047C6
:103920009DF8043003F00603062B09BF0120204652
:10393000009B2B6004B070BD0098904214BF012022
:103940000620704710B50446024B036000F0CFF824
:10395000204610BDD84F0A0810B50446FFF7F2FF05
:1039600020460821FFF7C2FF204610BD2DE9F04197
:10397000DDF818801F46DDE90834984506461546EF
:1039800007D1079900F0B6F818B165710020BDE8BD
:10399000F0813946304600F0ADF80028F6D001231A
:1039A000C4F800802571A371F0E738B515461C46B0
:1039B00000F0A0F820B10823E360062325602371FE
:1039C00038BD2DE9F04105460C4616461F4600F06D
:1039D00091F848B9032F07D8236832462946204674
:1039E000BDE8F0415B691847BDE8F08110B50446B9
:1039F000024B0360FFF7A6FF204610BD38500A08AF
:103A000010B50446FFF7F2FF20460C21FFF76EFFCA
:103A1000204610BD2DE9F041DDF81880064690459E
:103A20000F4615461C460BD0B0682A460368CDF8F1
:103A300018801E6A39462346B446BDE8F041604707
:103A4000194600F057F80028EED00620BDE8F081B6
:103A50002DE9F14F0D46DDE90A4BDDE90CA61946CB
:103A600081461746984600F045F890B1002D346025
:103A7000377109DB2C44A2450CBF06240124B47124
:103A8000002001B0BDE8F08F0235F9D10123B371F8
:103A9000F6E7544506D15946484600F02BF808B1E0
:103AA0007771EDE7D9F808003A460368CDE90CA62E
:103AB000CDE90A4BDC6929464346A44601B0BDE87E
:103AC000F04F60472DE9F04107460C4615461E466B
:103AD000FFF76BFF48B9B8682A46036821469F691B
:103AE0003346BC46BDE8F0416047BDE8F081704711
:103AF00000207047814208B50ED0406803782A2B19
:103B00000CD049680B782A2B08BF013100F0F5FE74
:103B1000B0FA80F0400908BD0120FCE70020FAE778
:103B200081F0004102E000BF83F0004330B54FEA6E
:103B300041044FEA430594EA050F08BF90EA020FDB
:103B40001FBF54EA000C55EA020C7FEA645C7FEA6E
:103B5000655C00F0E2804FEA5454D4EB5555B8BF91
:103B60006D420CDD2C4480EA020281EA030382EA02
:103B7000000083EA010180EA020281EA0303362D94
:103B800088BF30BD11F0004F4FEA01314FF4801C67
:103B90004CEA113102D0404261EB410113F0004F79
:103BA0004FEA03334CEA133302D0524263EB430330
:103BB00094EA050F00F0A780A4F10104D5F1200ECE
:103BC0000DDB02FA0EFC22FA05F2801841F1000129
:103BD00003FA0EF2801843FA05F359410EE0A5F1FD
:103BE00020050EF1200E012A03FA0EFC28BF4CF02E
:103BF000020C43FA05F3C01851EBE37101F00045E4
:103C000007D54FF0000EDCF1000C7EEB00006EEBF0
:103C10000101B1F5801F1BD3B1F5001F0CD349087A
:103C20005FEA30004FEA3C0C04F101044FEA4452D1
:103C300012F5800F80F09A80BCF1004F08BF5FEA58
:103C4000500C50F1000041EB045141EA050130BD38
:103C50005FEA4C0C404141EB0101013C28BFB1F54A
:103C6000801FE9D291F0000F04BF01460020B1FA95
:103C700081F308BF2033A3F10B03B3F120020CDA68
:103C80000C3208DD02F1140CC2F10C0201FA0CF046
:103C900021FA02F10CE002F11402D8BFC2F1200CAB
:103CA00001FA02F120FA0CFCDCBF41EA0C01904061
:103CB000E41AA2BF01EB0451294330BD6FEA0404AA
:103CC0001F3C1CDA0C340EDC04F11404C4F1200295
:103CD00020FA04F001FA02F340EA030021FA04F3A7
:103CE00045EA030130BDC4F10C04C4F1200220FAFE
:103CF00002F001FA04F340EA0300294630BD21FA3C
:103D000004F0294630BD94F0000F83F4801306BF01
:103D100081F480110134013D4EE77FEA645C18BFF5
:103D20007FEA655C29D094EA050F08BF90EA020F8C
:103D300005D054EA000C04BF1946104630BD91EA84
:103D4000030F1EBF0021002030BD5FEA545C05D187
:103D50004000494128BF41F0004130BD14F58004C6
:103D60003CBF01F5801130BD01F0004545F0FE413A
:103D700041F470014FF0000030BD7FEA645C1ABF6F
:103D8000194610467FEA655C1CBF0B46024650EAA6
:103D9000013406BF52EA033591EA030F41F40021D2
:103DA00030BD00BF90F0000F04BF0021704730B558
:103DB0004FF4806404F132044FF000054FF000012D
:103DC00050E700BF90F0000F04BF0021704730B5EE
:103DD0004FF4806404F1320410F0004548BF4042C3
:103DE0004FF000013EE700BF42004FEAE2014FEA18
:103DF00031014FEA02701FBF12F07F4393F07F4FF3
:103E000081F06051704732F07F4208BF704793F0F5
:103E10007F4F04BF41F40021704730B54FF4607408
:103E200001F0004521F000411CE700BF50EA01020B
:103E300008BF704730B54FF000050AE050EA0102B4
:103E400008BF704730B511F0004502D5404261EB24
:103E500041014FF4806404F132045FEA915C3FF465
:103E6000D8AE4FF003025FEADC0C18BF03325FEA02
:103E7000DC0C18BF033202EBDC02C2F1200300FAB3
:103E800003FC20FA02F001FA03FE40EA0E0021FAD8
:103E900002F11444BDE600BF70B54FF0FF0C4CF4C6
:103EA000E06C1CEA11541DBF1CEA135594EA0C0F78
:103EB00095EA0C0F00F0DEF82C4481EA030621EAB3
:103EC0004C5123EA4C5350EA013518BF52EA0335EE
:103ED00041F4801143F4801338D0A0FB02CE4FF0A0
:103EE0000005E1FB02E506F00042E0FB03E54FF0D0
:103EF0000006E1FB03569CF0000F18BF4EF0010EC8
:103F0000A4F1FF04B6F5007F64F5407404D25FEAC3
:103F10004E0E6D4146EB060642EAC62141EA555176
:103F20004FEAC52040EA5E504FEACE2EB4F1FD0CB8
:103F300088BFBCF5E06F1ED8BEF1004F08BF5FEA36
:103F4000500E50F1000041EB045170BD06F00046E8
:103F500046EA010140EA020081EA0301B4EB5C0495
:103F6000C2BFD4EB0C0541EA045170BD41F480118D
:103F70004FF0000E013C00F3AB8014F1360FDEBFB2
:103F8000002001F0004170BDC4F10004203C35DA8E
:103F90000C341BDC04F11404C4F1200500FA05F311
:103FA00020FA04F001FA05F240EA020001F00042B2
:103FB00021F0004110EBD37021FA04F642EB060128
:103FC0005EEA430E08BF20EAD37070BDC4F10C0452
:103FD000C4F1200500FA04F320FA05F001FA04F216
:103FE00040EA020001F0004110EBD37041F1000102
:103FF0005EEA430E08BF20EAD37070BDC4F120050D
:1040000000FA05F24EEA020E20FA04F301FA05F274
:1040100043EA020321FA04F001F0004121FA04F21C
:1040200020EA020000EBD3705EEA430E08BF20EAEC
:10403000D37070BD94F0000F0FD101F00046400026
:1040400041EB010111F4801F08BF013CF7D041EAA8
:10405000060195F0000F18BF704703F000465200AC
:1040600043EB030313F4801F08BF013DF7D043EA7D
:104070000603704794EA0C0F0CEA135518BF95EA33
:104080000C0F0CD050EA410618BF52EA4306D1D1BA
:1040900081EA030101F000414FF0000070BD50EAD9
:1040A000410606BF1046194652EA430619D094EA63
:1040B0000C0F02D150EA013613D195EA0C0F05D14D
:1040C00052EA03361CBF104619460AD181EA0301A1
:1040D00001F0004141F0FE4141F470014FF0000059
:1040E00070BD41F0FE4141F4780170BD70B54FF0F4
:1040F000FF0C4CF4E06C1CEA11541DBF1CEA135574
:1041000094EA0C0F95EA0C0F00F0A7F8A4EB050455
:1041100081EA030E52EA03354FEA013100F088804C
:104120004FEA03334FF0805545EA131343EA126315
:104130004FEA022245EA111545EA10654FEA0026CA
:104140000EF000419D4208BF964244F1FD0404F583
:10415000407402D25B084FEA3202B61A65EB0305DF
:104160005B084FEA32024FF480104FF4002CB6EB9C
:10417000020E75EB030E22BFB61A754640EA0C001C
:104180005B084FEA3202B6EB020E75EB030E22BF5C
:10419000B61A754640EA5C005B084FEA3202B6EB9D
:1041A000020E75EB030E22BFB61A754640EA9C005C
:1041B0005B084FEA3202B6EB020E75EB030E22BF2C
:1041C000B61A754640EADC0055EA060E18D04FEAEA
:1041D000051545EA16754FEA06164FEAC30343EA8A
:1041E00052734FEAC2025FEA1C1CC0D111F4801F57
:1041F0000BD141EA00014FF000004FF0004CB6E750
:1042000011F4801F04BF01430020B4F1FD0C88BFEE
:10421000BCF5E06F3FF6AFAEB5EB030C04BFB6EBF9
:10422000020C5FEA500C50F1000041EB045170BDEC
:104230000EF0004E4EEA113114EB5C04C2BFD4EB19
:104240000C0541EA045170BD41F480114FF0000E9D
:10425000013C90E645EA060E8DE60CEA135594EA19
:104260000C0F08BF95EA0C0F3FF43BAF94EA0C0F1C
:104270000AD150EA01347FF434AF95EA0C0F7FF491
:1042800025AF104619462CE795EA0C0F06D152EAE5
:1042900003353FF4FDAE1046194622E750EA4106C9
:1042A00018BF52EA43067FF4C5AE50EA41047FF4DA
:1042B0000DAF52EA43057FF4EBAE12E74FEA41023D
:1042C000B2F1E04324BFB3F5001CDCF1FE5C0DD974
:1042D00001F0004C4FEAC0024CEA5070B2F1004FBE
:1042E00040EB830008BF20F00100704711F0804FC1
:1042F00021D113F13872BCBF01F00040704741F486
:1043000080114FEA5252C2F11802C2F1200C10FA89
:104310000CF320FA02F018BF40F001004FEAC1236D
:104320004FEAD32303FA0CFC40EA0C0023FA02F311
:104330004FEA4303CCE77FEA625307D150EA0133E7
:104340001EBF4FF0FE4040F44000704701F00040B7
:1043500040F0FE4040F40000704700BF80F0004095
:1043600002E000BF81F0004142001FBF5FEA41034D
:1043700092EA030F7FEA226C7FEA236C6AD04FEA4D
:104380001262D2EB1363C1BFD21841404840414092
:10439000B8BF5B42192B88BF704710F0004F40F444
:1043A000000020F07F4018BF404211F0004F41F460
:1043B000000121F07F4118BF494292EA030F3FD02C
:1043C000A2F1010241FA03FC10EB0C00C3F120033F
:1043D00001FA03F100F0004302D5494260EB4000CE
:1043E000B0F5000F13D3B0F1807F06D340084FEA39
:1043F000310102F10102FE2A51D2B1F1004F40EB2E
:10440000C25008BF20F0010040EA03007047490095
:1044100040EB0000013A28BFB0F5000FEDD2B0FA32
:1044200080FCACF1080CB2EB0C0200FA0CF0AABF55
:1044300000EBC25052421843BCBFD04018437047F3
:1044400092F0000F81F4000106BF80F400000132F9
:10445000013BB5E74FEA41037FEA226C18BF7FEAD0
:10446000236C21D092EA030F04D092F0000F08BF12
:104470000846704790EA010F1CBF0020704712F0F9
:104480007F4F04D1400028BF40F00040704712F138
:1044900000723CBF00F50000704700F0004343F09D
:1044A000FE4040F4000070477FEA226216BF0846D3
:1044B0007FEA23630146420206BF5FEA412390EA96
:1044C000010F40F4800070474FF0000304E000BF8C
:1044D00010F0004348BF40425FEA000C08BF70473D
:1044E00043F0964301464FF000001CE050EA010201
:1044F00008BF70474FF000030AE000BF50EA010216
:1045000008BF704711F0004302D5404261EB410102
:104510005FEA010C02BF84460146002043F0B64327
:1045200008BFA3F18053A3F50003BCFA8CF2083A4C
:10453000A3EBC25310DB01FA02FC634400FA02FC55
:10454000C2F12002BCF1004F20FA02F243EB02005C
:1045500008BF20F00100704702F1200201FA02FCBE
:10456000C2F1200250EA4C0021FA02F243EB0200B1
:1045700008BF20EADC7070474FF0FF0C1CEAD052F5
:104580001EBF1CEAD15392EA0C0F93EA0C0F6FD0B6
:104590001A4480EA010C400218BF5FEA41211ED094
:1045A0004FF0006343EA501043EA5111A0FB013180
:1045B0000CF00040B1F5000F3EBF490041EAD37155
:1045C0005B0040EA010062F17F02FD2A1DD8B3F1D1
:1045D000004F40EBC25008BF20F00100704790F040
:1045E000000F0CF0004C08BF49024CEA502040EA92
:1045F00051207F3AC2BFD2F1FF0340EAC250704758
:1046000040F400004FF00003013A5DDC12F1190F95
:10461000DCBF00F000407047C2F10002410021FA07
:1046200002F1C2F1200200FA02FC5FEA310040F11F
:10463000000053EA4C0308BF20EADC70704792F098
:10464000000F00F0004C02BF400010F4000F013AD0
:10465000F9D040EA0C0093F0000F01F0004C02BFCB
:10466000490011F4000F013BF9D041EA0C018FE73A
:104670000CEAD15392EA0C0F18BF93EA0C0F0AD040
:1046800030F0004C18BF31F0004CD8D180EA010066
:1046900000F00040704790F0000F17BF90F0004FFF
:1046A000084691F0000F91F0004F14D092EA0C0FE1
:1046B00001D142020FD193EA0C0F03D14B0218BF74
:1046C000084608D180EA010000F0004040F0FE40BA
:1046D00040F40000704740F0FE4040F44000704756
:1046E0004FF0FF0C1CEAD0521EBF1CEAD15392EAD5
:1046F0000C0F93EA0C0F69D0A2EB030280EA010CC5
:1047000049024FEA402037D04FF0805343EA11115D
:1047100043EA10130CF000408B4238BF5B0042F1BB
:104720007D024FF4000C8B4224BF5B1A40EA0C0060
:10473000B3EB510F24BFA3EB510340EA5C00B3EB92
:10474000910F24BFA3EB910340EA9C00B3EBD10F80
:1047500024BFA3EBD10340EADC001B0118BF5FEAD2
:104760001C1CE0D1FD2A3FF650AF8B4240EBC250FB
:1047700008BF20F0010070470CF0004C4CEA5020BC
:104780007F32C2BFD2F1FF0340EAC250704740F40B
:1047900000004FF00003013A37E792F0000F00F0FD
:1047A000004C02BF400010F4000F013AF9D040EA7B
:1047B0000C0093F0000F01F0004C02BF490011F40F
:1047C000000F013BF9D041EA0C0195E70CEAD15307
:1047D00092EA0C0F08D142027FF47DAF93EA0C0FEE
:1047E0007FF470AF084676E793EA0C0F04D14B02D2
:1047F0003FF44CAF08466EE730F0004C18BF31F084
:10480000004CCAD130F000427FF45CAF31F000437D
:104810007FF43CAF5FE700BF002301461A4618460D
:1048200000F030B90A44914200F1FF3300D17047E3
:1048300010B511F8014B914203F8014FF9D110BDA9
:10484000884210B501EB020402D98442234607D8FE
:10485000431EA14208D011F8012B03F8012FF8E7FD
:10486000014602448A4200D110BD13F8014D02F8FE
:10487000014DF7E703460244934200D1704703F825
:10488000011BF9E738B50D4B04461D68AB6B7BB9CE
:104890001820FCF7E5FD0A4A0A4BA863C0E900238B
:1048A000094B012283600B2383810023C0E9042389
:1048B0000022AB6B1C615A6138BD00BF0C000020A8
:1048C0000E33CDAB34126DE6ECDE05000346C9B203
:1048D000184613F8012B12B18A42F9D1704700290A
:1048E00018BF0020704710B50446FFF7EFFF18B956
:1048F000204600F014F8204410BD10F8012B11F8E8
:10490000013B012A28BF9A42F7D0D01A70470346CC
:1049100011F8012B03F8012B002AF9D17047034647
:1049200013F8012B002AFBD1181A0138704710B573
:104930006AB10139841810F8013B11F8012F934234
:1049400003D1A04201D0002BF5D1981A10BD10461A
:10495000FCE738B503460C4669B9BDE83840FFF7B7
:10496000B5BF0546431C21461846FFF7AFFF002898
:10497000F7D1284638BD0025F5E700002DE9F047BE
:104980008C468646394E60461CF8014BA55D15F0F5
:104990000805F8D12D2C33D14FF001089CF80040C8
:1049A00000F1020C002B5CD0102B0CD1302C0AD162
:1049B0009CF8000000F0DF0058284DD110239CF82F
:1049C00001400CF1020C002608F10047013FB7FB43
:1049D000F3F9304603FB197AA4F13005092D18D8F4
:1049E0002C46A34224DD751C07D081451DD301D17F
:1049F000A2451ADB012600FB03401CF8014BEBE744
:104A00002B2C08BF9CF80040A84608BF00F1020C00
:104A1000C8E7A4F14105192D01D8373CE1E7A4F11D
:104A20006105192D04D8573CDBE74FF0FF36E4E76A
:104A3000731C06D122233846CEF8003042B9BDE8B7
:104A4000F087B8F1000F00D04042002AF7D00EB135
:104A50000CF1FF311160F2E73024002BB3D10823B1
:104A6000B1E7302CA4D00A23ADE700BF72500A088A
:104A700013460A46014602480068FFF77FBF00BFA1
:104A80000C0000202DE9F843DFF8BC800646D8F87A
:104A900000001F460D46914600F058F8264B1C6852
:104AA00034B9264C1C60264B13B11B68C4F88830FF
:104AB00063681F2B07DDD8F8000000F049F84FF0BD
:104AC000FF30BDE8F8835EB3D4F8880088B91D4B89
:104AD00023B9D8F8000000F03AF8F0E74FF48470FA
:104AE000FCF7BEFC0028F4D00023C0E94033C4F832
:104AF000880001226368022E40F8239002FA03F234
:104B000000EB8301D0F8003143EA0203C0F8003122
:104B1000C1F8807002BFD0F804311A43C0F80421F4
:104B20006368D8F800005A1C0233626044F82350CE
:104B300000F00EF80020C4E7180700208C060020C3
:104B40000000000061140A087000002070477047E0
:104B50007047000021000A0861000A0889000A085D
:104B60008D000A08000000004D65737361676520C1
:104B70005265636569766564004275666665722094
:104B800066756C6C0074656D7065726174757265C4
:104B90000068756D69646974790070726573737506
:104BA000726500656E7669726F6E6D656E742F77D3
:104BB0006561746865722D73746174696F6E0050FD
:104BC00075626C6973686564004E6F7420707562FD
:104BD0006C697368656400686F6D652D6175746FCD
:104BE0006D6174696F6E2E7065726B796C61622E87
:104BF000636F6D0000000000000000000000000076
:104C000000000000AD000A08D1000A080000000002
:104C100000000000DD000A0811010A08C9270A087F
:104C2000D3000A0800044D5154540400064D514964
:104C3000736470034D504C33313135413220466F2F
:104C4000756E640053693730323120466F756E647B
:104C50000048545532314420466F756E64004D5003
:104C60004C333131354132204E4F5420466F756EF2
:104C700064004E6F2054656D702F48756D696469CE
:104C8000747920446576696365204465746563744E
:104C90006564004E6F2044657669636573204465E2
:104CA000746563746564000000000000000000008B
:104CB000F1140A083B150A0813150A08F3140A0828
:104CC0001B150A0823150A082B150A0833150A08AC
:104CD0000000000000000000FD150A08ED150A089C
:104CE000EF150A0825640025750025670075253035
:104CF0003478000000000000000000000B170A08D4
:104D00000D170A081B170A0841170A086261756423
:104D10000053657269616C00555342536572696155
:104D20006C31004A534F4E53747265616D4C6F671E
:104D300048616E646C6572006170700025303130BE
:104D40007520005D20002C200028293A2000205BDF
:104D500000636F6465203D2000256900646574610F
:104D6000696C73203D20000D0A00630066006C6EC4
:104D700000666E007400636F646500646574616949
:104D80006C00000000000000000000005D1B0A082D
:104D9000831B0A08411B0A0875170A080000000057
:104DA00000000000E91F0A0801200A08C9270A08B4
:104DB000D3000A08000000000000000015200A08C7
:104DC00029200A0871290A08491B0A080000000066
:104DD000000000005B1B0A08911B0A0805270A084F
:104DE0004B1B0A080000000000000000591B0A08C5
:104DF0009F1B0A08111F0A08BD1B0A0800000000BB
:104E000000000000E52A0A08EF2A0A08F92A0A0821
:104E1000032B0A080D2B0A08192B0A08252B0A0850
:104E20002D2B0A08352B0A08412B0A08492B0A08A2
:104E3000532B0A085D2B0A08776972696E67005464
:104E40004350436C69656E7420736F636B65743D8A
:104E5000257800000000000000000000C92E0A08AC
:104E6000F12E0A0813330A08FF2E0A08CD2E0A086D
:104E70000000000000000000000000000000000032
:104E8000052F0A08392F0A08852E0A089F2E0A08BE
:104E900015310A089B2F0A086D2F0A08C72E0A0829
:104EA00035300A0819330A08CF2F0A0889310A0851
:104EB00037320A08EF310A08AF2E0A08FD310A0816
:104EC0004D2F0A0825592D256D2D25645425483A66
:104ED000254D3A2553257A0061736374696D650029
:104EE000000000000000000099330A0803340A089B
:104EF000DF330A08D92B0A08AF330A08CB330A0874
:104F0000BD330A08D9330A089B330A08A1330A08BB
:104F100000000000000000009F340A0805350A0860
:104F2000DD340A08D92B0A08CF340A08A1340A084C
:104F3000B1340A08FF340A08C1340A0899340A084F
:104F40000000000000000000D7360A08CD360A082D
:104F5000C3360A0835360A08B7360A08AB360A08D7
:104F6000252B0A082D2B0A089F360A0897360A08AF
:104F70008D360A0883360A083F360A080053743112
:104F8000395F53705F6D616B655F736861726564F3
:104F90005F74616700000000D84F0A087D4F0A085F
:104FA00038500A08AC4F0A085C500A084E31305F8E
:104FB0005F637878616269763131375F5F636C6116
:104FC00073735F747970655F696E666F450000008A
:104FD00000000000A04F0A0845390A0859390A089C
:104FE000F13A0A08F13A0A08C3390A0805390A08E9
:104FF000AB390A086D390A0839390A0838500A08E5
:1050000008500A08A04F0A084E31305F5F63787875
:10501000616269763132305F5F73695F636C6173BF
:10502000735F747970655F696E666F45000000009C
:1050300000000000FC4F0A08ED390A08013A0A088E
:10504000F13A0A08F13A0A08C3390A0805390A0888
:10505000C53A0A08513A0A08153A0A08D84F0A0808
:1050600064500A08537439747970655F696E666FAD
:105070000000202020202020202020282828282848
:105080002020202020202020202020202020202020
:105090002020881010101010101010101010101078
:1050A0001010040404040404040404041010101078
:1050B0001010104141414141410101010101010133
:1050C00001010101010101010101010101101010A3
:1050D0001010104242424242420202020202020206
:1050E0000202020202020202020202020210101076
:1050F0001020000000000000000000000000000080
:10510000000000000000000000000000000000009F
:10511000000000000000000000000000000000008F
:10512000000000000000000000000000000000007F
:10513000000000000000000000000000000000006F
:10514000000000000000000000000000000000005F
:10515000000000000000000000000000000000004F
:10516000000000000000000000000000000000003F
:1051700000000000F5030A08B9270A08C52B0A0831
:10518000F52C0A08612E0A0885330A08E1360A0858
:10519000D1380A08000000000000000000000000F4
:0451A000000000000B
:1051A400D44D0A08EC4D0A08D84E0A081000002015
:1051B40000000000000000000000000000000000EB
:1051C40000000000000000000000000000000000DB
:1051D40000000000000000000000000000000000CB
:1051E40000000000000000000000000000000000BB
:1051F40000000000000000000000000000000000AB
:10520400000000000000000000000000000000009A
:045214001D07002052
:10521800FFFFFFFF00000102030405060708090A53
:105228000B0C0D0E0F101112131415161718191A4E
:085238001B1C1D1E1F20280095
:045240007856341256
:04000005080A0020C5
:00000001FF
